{
   "rpcUrl": "https://data-seed-prebsc-2-s2.binance.org:8545",
   "chainId": 97,
   "address": "0x9aD046b27ddb52517D47D7606E7d742aB1c23295",
   "timestamp": "11/8/2023, 11:16:58 PM",
   "network": "Testnet",
   "contractName": "Wallet",
   "abi": [
      {
         "inputs": [],
         "stateMutability": "nonpayable",
         "type": "constructor"
      },
      {
         "inputs": [],
         "name": "factory",
         "outputs": [
            {
               "internalType": "address",
               "name": "",
               "type": "address"
            }
         ],
         "stateMutability": "view",
         "type": "function"
      },
      {
         "stateMutability": "payable",
         "type": "receive"
      },
      {
         "inputs": [],
         "name": "initialize",
         "outputs": [],
         "stateMutability": "nonpayable",
         "type": "function"
      },
      {
         "inputs": [],
         "name": "claimEth",
         "outputs": [
            {
               "internalType": "bool",
               "name": "",
               "type": "bool"
            }
         ],
         "stateMutability": "nonpayable",
         "type": "function"
      }
   ],
   "bytecode": "0x608060405234801561001057600080fd5b50600080546001600160a01b031916331790556102c1806100326000396000f3fe6080604052600436106100385760003560e01c80638129fc1c146100a8578063b7cdddcb146100bf578063c45a0155146100ea576100a3565b366100a357600054604051636fc4936360e11b81526001600160a01b039091169063df8926c690479061006f903390600401610212565b6000604051808303818588803b15801561008857600080fd5b505af115801561009c573d6000803e3d6000fd5b5050505050005b600080fd5b3480156100b457600080fd5b506100bd61010c565b005b3480156100cb57600080fd5b506100d46101a4565b6040516100e19190610226565b60405180910390f35b3480156100f657600080fd5b506100ff610203565b6040516100e19190610212565b6000546001600160a01b0316331461013f5760405162461bcd60e51b815260040161013690610260565b60405180910390fd5b60008054604051636fc4936360e11b81526001600160a01b039091169163df8926c691479161017091600401610212565b6000604051808303818588803b15801561018957600080fd5b505af115801561019d573d6000803e3d6000fd5b5050505050565b600080546001600160a01b031633146101cf5760405162461bcd60e51b815260040161013690610231565b60405132904780156108fc02916000818181858888f193505050501580156101fb573d6000803e3d6000fd5b506001905090565b6000546001600160a01b031681565b6001600160a01b0391909116815260200190565b901515815260200190565b6020808252601590820152742bb0b63632ba1d102737903832b936b4b9b9b4b7b760591b604082015260600190565b6020808252601190820152702bb0b63632ba1d102327a92124a22222a760791b60408201526060019056fea2646970667358221220c10efe4554d062187c9bafe83b2a2f2b0d61009e97de9e5941c08fa33efcce2964736f6c63430008000033",
   "immutableReferences": {},
   "source": "// SPDX-License-Identifier: MIT\r\npragma solidity 0.8.0;\r\n\r\n\r\ninterface IFactory {\r\n    function receiveFunds(address from) external payable;\r\n}\r\n\r\ncontract Wallet {\r\n    \r\n    address public factory;\r\n\r\n    receive() external payable {\r\n        IFactory(factory).receiveFunds{value: address(this).balance}(msg.sender);\r\n    }\r\n\r\n    constructor() public {\r\n        factory = msg.sender;\r\n    }\r\n\r\n    function initialize() external {\r\n        require(msg.sender == factory, 'Wallet: FORBIDDEN'); // sufficient check\r\n        IFactory(factory).receiveFunds{value: address(this).balance}(address(0));\r\n    }\r\n\r\n    function claimEth() public returns(bool) {\r\n        require(msg.sender == factory, \"Wallet: No permission\");\r\n        payable(tx.origin).transfer(address(this).balance);\r\n        return true;\r\n    }\r\n}",
   "sourcePath": "D:\\cyberockvalley\\WEB_DEV\\npm-libs\\use-softbaker\\contract\\contracts\\Wallet.sol",
   "compiler": {
      "name": "solc",
      "version": "0.8.0+commit.c7dfd78e.Emscripten.clang"
   },
   "schemaVersion": "3.4.16",
   "updatedAt": "2023-11-08T22:15:29.501Z",
   "devdoc": {
      "kind": "dev",
      "methods": {},
      "version": 1
   },
   "userdoc": {
      "kind": "user",
      "methods": {},
      "version": 1
   }
}