{
   "rpcUrl": "https://ethereum-goerli.publicnode.com",
   "chainId": 5,
   "address": "0x7c17e1AFF887c528489A01E6aDdB67B35D87fDd3",
   "timestamp": "11/8/2023, 11:16:34 PM",
   "network": "Testnet",
   "contractName": "WalletFactory",
   "abi": [
      {
         "inputs": [
            {
               "internalType": "address",
               "name": "_walletCreator",
               "type": "address"
            },
            {
               "internalType": "address[]",
               "name": "_shareHoldersWallets",
               "type": "address[]"
            },
            {
               "internalType": "uint8[]",
               "name": "_shareHoldersPcts",
               "type": "uint8[]"
            }
         ],
         "stateMutability": "nonpayable",
         "type": "constructor"
      },
      {
         "anonymous": false,
         "inputs": [
            {
               "indexed": true,
               "internalType": "address",
               "name": "executor",
               "type": "address"
            },
            {
               "indexed": false,
               "internalType": "uint256",
               "name": "amount",
               "type": "uint256"
            }
         ],
         "name": "FeesReturned",
         "type": "event"
      },
      {
         "anonymous": false,
         "inputs": [
            {
               "indexed": true,
               "internalType": "address",
               "name": "from",
               "type": "address"
            },
            {
               "indexed": false,
               "internalType": "uint256",
               "name": "totalShareHolders",
               "type": "uint256"
            },
            {
               "indexed": false,
               "internalType": "uint256",
               "name": "totalPercentages",
               "type": "uint256"
            }
         ],
         "name": "ShareHoldersUpdated",
         "type": "event"
      },
      {
         "anonymous": false,
         "inputs": [
            {
               "indexed": true,
               "internalType": "address",
               "name": "executor",
               "type": "address"
            },
            {
               "indexed": true,
               "internalType": "address",
               "name": "holderWallet",
               "type": "address"
            },
            {
               "indexed": false,
               "internalType": "uint256",
               "name": "amount",
               "type": "uint256"
            }
         ],
         "name": "ShareSent",
         "type": "event"
      },
      {
         "anonymous": false,
         "inputs": [
            {
               "indexed": true,
               "internalType": "address",
               "name": "from",
               "type": "address"
            },
            {
               "indexed": true,
               "internalType": "address",
               "name": "toWallet",
               "type": "address"
            },
            {
               "indexed": false,
               "internalType": "uint256",
               "name": "amount",
               "type": "uint256"
            }
         ],
         "name": "Transfer",
         "type": "event"
      },
      {
         "anonymous": false,
         "inputs": [
            {
               "indexed": true,
               "internalType": "bytes32",
               "name": "salt",
               "type": "bytes32"
            },
            {
               "indexed": true,
               "internalType": "address",
               "name": "wallet",
               "type": "address"
            }
         ],
         "name": "WalletCreated",
         "type": "event"
      },
      {
         "inputs": [],
         "name": "owner",
         "outputs": [
            {
               "internalType": "address",
               "name": "",
               "type": "address"
            }
         ],
         "stateMutability": "view",
         "type": "function"
      },
      {
         "inputs": [
            {
               "internalType": "bytes32",
               "name": "",
               "type": "bytes32"
            }
         ],
         "name": "saltToWallet",
         "outputs": [
            {
               "internalType": "address",
               "name": "",
               "type": "address"
            }
         ],
         "stateMutability": "view",
         "type": "function"
      },
      {
         "inputs": [
            {
               "internalType": "uint8",
               "name": "",
               "type": "uint8"
            }
         ],
         "name": "shareHolders",
         "outputs": [
            {
               "internalType": "address",
               "name": "wallet",
               "type": "address"
            },
            {
               "internalType": "uint8",
               "name": "pct",
               "type": "uint8"
            }
         ],
         "stateMutability": "view",
         "type": "function"
      },
      {
         "inputs": [],
         "name": "totalShareHolders",
         "outputs": [
            {
               "internalType": "uint8",
               "name": "",
               "type": "uint8"
            }
         ],
         "stateMutability": "view",
         "type": "function"
      },
      {
         "inputs": [
            {
               "internalType": "address",
               "name": "",
               "type": "address"
            }
         ],
         "name": "walletCreated",
         "outputs": [
            {
               "internalType": "bool",
               "name": "",
               "type": "bool"
            }
         ],
         "stateMutability": "view",
         "type": "function"
      },
      {
         "inputs": [],
         "name": "walletCreator",
         "outputs": [
            {
               "internalType": "address",
               "name": "",
               "type": "address"
            }
         ],
         "stateMutability": "view",
         "type": "function"
      },
      {
         "inputs": [
            {
               "internalType": "address",
               "name": "",
               "type": "address"
            }
         ],
         "name": "walletToDeposits",
         "outputs": [
            {
               "internalType": "uint256",
               "name": "",
               "type": "uint256"
            }
         ],
         "stateMutability": "view",
         "type": "function"
      },
      {
         "inputs": [
            {
               "internalType": "address",
               "name": "",
               "type": "address"
            }
         ],
         "name": "walletToSalt",
         "outputs": [
            {
               "internalType": "bytes32",
               "name": "",
               "type": "bytes32"
            }
         ],
         "stateMutability": "view",
         "type": "function"
      },
      {
         "inputs": [
            {
               "internalType": "uint256",
               "name": "",
               "type": "uint256"
            }
         ],
         "name": "wallets",
         "outputs": [
            {
               "internalType": "address",
               "name": "",
               "type": "address"
            }
         ],
         "stateMutability": "view",
         "type": "function"
      },
      {
         "inputs": [
            {
               "internalType": "address",
               "name": "from",
               "type": "address"
            }
         ],
         "name": "receiveFunds",
         "outputs": [],
         "stateMutability": "payable",
         "type": "function"
      },
      {
         "inputs": [
            {
               "internalType": "address",
               "name": "currentOwnerConfirmation",
               "type": "address"
            },
            {
               "internalType": "address",
               "name": "newOwner",
               "type": "address"
            }
         ],
         "name": "updateOwner",
         "outputs": [],
         "stateMutability": "nonpayable",
         "type": "function"
      },
      {
         "inputs": [
            {
               "internalType": "address",
               "name": "_walletCreator",
               "type": "address"
            }
         ],
         "name": "updateWalletCreator",
         "outputs": [],
         "stateMutability": "nonpayable",
         "type": "function"
      },
      {
         "inputs": [
            {
               "internalType": "address[]",
               "name": "_shareHoldersWallets",
               "type": "address[]"
            },
            {
               "internalType": "uint8[]",
               "name": "_shareHoldersPcts",
               "type": "uint8[]"
            }
         ],
         "name": "updateShareHolders",
         "outputs": [],
         "stateMutability": "nonpayable",
         "type": "function"
      },
      {
         "inputs": [
            {
               "internalType": "uint256",
               "name": "gasFeeReturn",
               "type": "uint256"
            }
         ],
         "name": "disburseFunds",
         "outputs": [],
         "stateMutability": "nonpayable",
         "type": "function"
      },
      {
         "inputs": [
            {
               "internalType": "bytes32",
               "name": "salt",
               "type": "bytes32"
            }
         ],
         "name": "claimWalletEth",
         "outputs": [
            {
               "internalType": "bool",
               "name": "",
               "type": "bool"
            }
         ],
         "stateMutability": "nonpayable",
         "type": "function"
      },
      {
         "inputs": [
            {
               "internalType": "bytes32[]",
               "name": "salts",
               "type": "bytes32[]"
            },
            {
               "internalType": "uint256",
               "name": "disburseThreshold",
               "type": "uint256"
            },
            {
               "internalType": "uint256",
               "name": "gasFeeReturn",
               "type": "uint256"
            }
         ],
         "name": "createWallets",
         "outputs": [],
         "stateMutability": "nonpayable",
         "type": "function"
      },
      {
         "inputs": [
            {
               "internalType": "bytes32",
               "name": "salt",
               "type": "bytes32"
            }
         ],
         "name": "getSaltAddress",
         "outputs": [
            {
               "internalType": "address",
               "name": "wallet",
               "type": "address"
            },
            {
               "internalType": "bool",
               "name": "isCreated",
               "type": "bool"
            }
         ],
         "stateMutability": "view",
         "type": "function"
      },
      {
         "inputs": [
            {
               "internalType": "bytes32[]",
               "name": "salts",
               "type": "bytes32[]"
            }
         ],
         "name": "getAllSaltsTotalBalance",
         "outputs": [
            {
               "internalType": "uint256",
               "name": "totalBalance",
               "type": "uint256"
            }
         ],
         "stateMutability": "view",
         "type": "function"
      },
      {
         "inputs": [
            {
               "internalType": "bytes32[]",
               "name": "salts",
               "type": "bytes32[]"
            }
         ],
         "name": "getCreatedSaltsTotalBalance",
         "outputs": [
            {
               "internalType": "uint256",
               "name": "totalBalance",
               "type": "uint256"
            }
         ],
         "stateMutability": "view",
         "type": "function"
      },
      {
         "inputs": [
            {
               "internalType": "bytes32[]",
               "name": "salts",
               "type": "bytes32[]"
            }
         ],
         "name": "getNonCreatedSaltsTotalBalance",
         "outputs": [
            {
               "internalType": "uint256",
               "name": "totalBalance",
               "type": "uint256"
            }
         ],
         "stateMutability": "view",
         "type": "function"
      },
      {
         "inputs": [],
         "name": "walletsCount",
         "outputs": [
            {
               "internalType": "uint256",
               "name": "",
               "type": "uint256"
            }
         ],
         "stateMutability": "view",
         "type": "function"
      },
      {
         "inputs": [],
         "name": "getAllShareHolders",
         "outputs": [
            {
               "internalType": "address[]",
               "name": "",
               "type": "address[]"
            },
            {
               "internalType": "uint8[]",
               "name": "",
               "type": "uint8[]"
            }
         ],
         "stateMutability": "view",
         "type": "function"
      },
      {
         "inputs": [
            {
               "internalType": "bytes32",
               "name": "salt",
               "type": "bytes32"
            }
         ],
         "name": "getSaltBalance",
         "outputs": [
            {
               "internalType": "address",
               "name": "wallet",
               "type": "address"
            },
            {
               "internalType": "bool",
               "name": "isCreated",
               "type": "bool"
            },
            {
               "internalType": "uint256",
               "name": "balance",
               "type": "uint256"
            }
         ],
         "stateMutability": "view",
         "type": "function"
      }
   ],
   "bytecode": "0x60806040523480156200001157600080fd5b50604051620021fe380380620021fe8339810160408190526200003491620002f7565b60058054336001600160a01b031991821617909155600680549091166001600160a01b03851617905562000069828262000072565b50505062000579565b60008251116200009f5760405162461bcd60e51b8152600401620000969062000410565b60405180910390fd5b8051825114620000c35760405162461bcd60e51b8152600401620000969062000453565b6000805b83518160ff161015620001dc57838160ff1681518110620000f857634e487b7160e01b600052603260045260246000fd5b60209081029190910181015160ff831660008181526007909352604090922080546001600160a01b0319166001600160a01b03909216919091179055835184919081106200015657634e487b7160e01b600052603260045260246000fd5b60209081029190910181015160ff808416600081815260079094526040909320805491909216600160a01b0260ff60a01b1990911617905583518491908110620001b057634e487b7160e01b600052603260045260246000fd5b602002602001015182620001c5919062000502565b915080620001d3816200052a565b915050620000c7565b5060648160ff161115620002045760405162461bcd60e51b81526004016200009690620003d9565b82516008805460ff191660ff831617905560405133917f48f96e8789eaba6ef30f6956ab1651363ddea537ccae158deda7ba94aa2d9c0e916200024a919085906200049f565b60405180910390a2505050565b80516001600160a01b03811681146200026f57600080fd5b919050565b600082601f83011262000285578081fd5b815160206200029e6200029883620004dc565b620004b0565b8281528181019085830183850287018401881015620002bb578586fd5b855b85811015620002ea57815160ff81168114620002d7578788fd5b84529284019290840190600101620002bd565b5090979650505050505050565b6000806000606084860312156200030c578283fd5b620003178462000257565b602085810151919450906001600160401b038082111562000336578485fd5b818701915087601f8301126200034a578485fd5b81516200035b6200029882620004dc565b81815284810190848601868402860187018c101562000378578889fd5b8895505b83861015620003a557620003908162000257565b8352600195909501949186019186016200037c565b5060408a01519097509450505080831115620003bf578384fd5b5050620003cf8682870162000274565b9150509250925092565b6020808252601d908201527f546f74616c2070657263656e7461676520657863656564732031303025000000604082015260600190565b60208082526023908201527f5368617265486f6c64657273206c697374206d757374206e6f7420626520656d60408201526270747960e81b606082015260800190565b6020808252602c908201527f5368617265486f6c6465727357616c6c6574206c656e67746820213d2053686160408201526b1c99521bdb19195c9cd418dd60a21b606082015260800190565b91825260ff16602082015260400190565b6040518181016001600160401b0381118282101715620004d457620004d462000563565b604052919050565b60006001600160401b03821115620004f857620004f862000563565b5060209081020190565b600060ff821660ff84168060ff038211156200052257620005226200054d565b019392505050565b600060ff821660ff8114156200054457620005446200054d565b60010192915050565b634e487b7160e01b600052601160045260246000fd5b634e487b7160e01b600052604160045260246000fd5b611c7580620005896000396000f3fe6080604052600436106101405760003560e01c80637ad71f72116100b6578063b42245371161006f578063b4224537146103a6578063cc212a48146103c6578063d8bfa833146103e6578063df8926c614610406578063e374d68314610419578063f45cf0d41461043957610140565b80637ad71f72146102fa5780638da5cb5b1461031a5780639a9824161461032f578063a2b57c2e14610351578063a6348c8014610371578063aed93d261461039157610140565b80633e64d86f116101085780633e64d86f1461021857806347b2470d14610238578063539170b21461024d5780635b7911dc146102705780636aa5b5621461029f5780636e7a33f8146102cd57610140565b8063025eaa7a146101455780630451edea1461017c57806308f17623146101a957806310eb2b30146101d65780633d41e92f146101f8575b600080fd5b34801561015157600080fd5b506101656101603660046114a9565b610459565b60405161017392919061154c565b60405180910390f35b34801561018857600080fd5b5061019c6101973660046113ea565b610480565b60405161017391906115ec565b3480156101b557600080fd5b506101c96101c43660046112d9565b61050d565b60405161017391906115e1565b3480156101e257600080fd5b506101f66101f136600461132c565b610522565b005b34801561020457600080fd5b5061019c6102133660046113ea565b610563565b34801561022457600080fd5b5061019c6102333660046112d9565b610606565b34801561024457600080fd5b5061019c610618565b34801561025957600080fd5b5061026261061e565b604051610173929190611568565b34801561027c57600080fd5b5061029061028b366004611491565b6107b3565b6040516101739392919061152b565b3480156102ab57600080fd5b506102bf6102ba366004611491565b6107fd565b604051610173929190611510565b3480156102d957600080fd5b506102ed6102e8366004611491565b610813565b60405161017391906114fc565b34801561030657600080fd5b506102ed610315366004611491565b61082e565b34801561032657600080fd5b506102ed610858565b34801561033b57600080fd5b50610344610867565b60405161017391906117ed565b34801561035d57600080fd5b506101c961036c366004611491565b610870565b34801561037d57600080fd5b506101f661038c3660046112fa565b61093c565b34801561039d57600080fd5b506102ed6109b6565b3480156103b257600080fd5b5061019c6103c13660046112d9565b6109c5565b3480156103d257600080fd5b506101f66103e1366004611491565b6109d7565b3480156103f257600080fd5b506101f66104013660046112d9565b610a23565b6101f66104143660046112d9565b610a6f565b34801561042557600080fd5b506101f6610434366004611425565b610aff565b34801561044557600080fd5b5061019c6104543660046113ea565b610d01565b6007602052600090815260409020546001600160a01b03811690600160a01b900460ff1682565b60008060008060005b85518163ffffffff16101561050457858163ffffffff16815181106104be57634e487b7160e01b600052603260045260246000fd5b602002602001015191506104d182610d95565b9094509250826104f2576104ef6001600160a01b0385163186611849565b94505b806104fc816118dc565b915050610489565b50505050919050565b60036020526000908152604090205460ff1681565b6005546001600160a01b031633146105555760405162461bcd60e51b815260040161054c906115f5565b60405180910390fd5b61055f8282610e36565b5050565b60008060008060005b85518163ffffffff16101561050457858163ffffffff16815181106105a157634e487b7160e01b600052603260045260246000fd5b602002602001015191506105b482610d95565b9094509250826105ce57836001600160a01b0316316105e8565b6001600160a01b0384166000908152600460205260409020545b6105f29086611849565b9450806105fe816118dc565b91505061056c565b60046020526000908152604090205481565b60005490565b600854606090819060009060ff1667ffffffffffffffff81111561065257634e487b7160e01b600052604160045260246000fd5b60405190808252806020026020018201604052801561067b578160200160208202803683370190505b5060085490915060009060ff1667ffffffffffffffff8111156106ae57634e487b7160e01b600052604160045260246000fd5b6040519080825280602002602001820160405280156106d7578160200160208202803683370190505b50905060005b60085460ff90811690821610156107a95760ff811660008181526007602052604090205484516001600160a01b03909116918591811061072d57634e487b7160e01b600052603260045260246000fd5b6001600160a01b0390921660209283029190910182015260ff808316600081815260079093526040909220548451600160a01b909104909116918491811061078557634e487b7160e01b600052603260045260246000fd5b60ff90921660209283029190910190910152806107a181611900565b9150506106dd565b5090925090509091565b60008060006107c184610d95565b9093509150816107db57826001600160a01b0316316107f5565b6001600160a01b0383166000908152600460205260409020545b929491935050565b60008061080983610d95565b9094909350915050565b6001602052600090815260409020546001600160a01b031681565b6000818154811061083e57600080fd5b6000918252602090912001546001600160a01b0316905081565b6005546001600160a01b031681565b60085460ff1681565b6005546000906001600160a01b031633148061089657506006546001600160a01b031633145b6108b25760405162461bcd60e51b815260040161054c906116f0565b60006108bd83610d95565b509050806001600160a01b031663b7cdddcb6040518163ffffffff1660e01b8152600401602060405180830381600087803b1580156108fb57600080fd5b505af115801561090f573d6000803e3d6000fd5b505050506040513d601f19601f820116820180604052508101906109339190611471565b9150505b919050565b6005546001600160a01b031633146109665760405162461bcd60e51b815260040161054c906115f5565b6005546001600160a01b038381169116146109935760405162461bcd60e51b815260040161054c9061163a565b600580546001600160a01b0319166001600160a01b039290921691909117905550565b6006546001600160a01b031681565b60026020526000908152604090205481565b6005546001600160a01b03163314806109fa57506006546001600160a01b031633145b610a165760405162461bcd60e51b815260040161054c906116f0565b610a204782610ffe565b50565b6005546001600160a01b03163314610a4d5760405162461bcd60e51b815260040161054c906115f5565b600680546001600160a01b0319166001600160a01b0392909216919091179055565b3360009081526003602052604090205460ff168015610a8e5750600034115b15610a20573360009081526004602052604081208054349290610ab2908490611849565b909155505060405133906001600160a01b038316907fddf252ad1be2c89b69c2b068fc378daa952ba7f163c4a11628f55a4df523b3ef90610af49034906115ec565b60405180910390a350565b6005546001600160a01b0316331480610b2257506006546001600160a01b031633145b610b3e5760405162461bcd60e51b815260040161054c906116f0565b600060405180602001610b50906111d7565b601f1982820381018352601f909101166040529050600080805b86518163ffffffff161015610ccd57868163ffffffff1681518110610b9f57634e487b7160e01b600052603260045260246000fd5b60200260200101519150818451602086016000f56001600160a01b0381166000818152600360209081526040808320805460ff1916600190811790915587845280835281842080546001600160a01b031990811687179091558585526002909352818420889055835490810184558380527f290decd9548b62a8d60345a988386fc84ba6bc95484008f6362f93160ef3e563018054909216841790915551929550909184917ff2662d9021b3e7e054222f9718831a1231593551e7982d2043e361f98976940091a3826001600160a01b0316638129fc1c6040518163ffffffff1660e01b8152600401600060405180830381600087803b158015610ca257600080fd5b505af1158015610cb6573d6000803e3d6000fd5b505050508080610cc5906118dc565b915050610b6a565b50478015801590610cde5750858110155b8015610ce957508481115b15610cf857610cf88186610ffe565b50505050505050565b60008060008060005b85518163ffffffff16101561050457858163ffffffff1681518110610d3f57634e487b7160e01b600052603260045260246000fd5b60200260200101519150610d5282610d95565b90945092508215610d83576001600160a01b038416600090815260046020526040902054610d809086611849565b94505b80610d8d816118dc565b915050610d0a565b6000818152600160209081526040808320546001600160a01b031680845260039092529091205460ff1680610e3157600060405180602001610dd6906111d7565b601f1982820381018352601f9091011660408190528151602083810191909120929350610e13916001600160f81b031991309189918691016114c3565b6040516020818303038152906040528051906020012060001c935050505b915091565b6000825111610e575760405162461bcd60e51b815260040161054c9061174d565b8051825114610e785760405162461bcd60e51b815260040161054c90611790565b6000805b83518160ff161015610f8857838160ff1681518110610eab57634e487b7160e01b600052603260045260246000fd5b60209081029190910181015160ff831660008181526007909352604090922080546001600160a01b0319166001600160a01b0390921691909117905583518491908110610f0857634e487b7160e01b600052603260045260246000fd5b60209081029190910181015160ff808416600081815260079094526040909320805491909216600160a01b0260ff60a01b1990911617905583518491908110610f6157634e487b7160e01b600052603260045260246000fd5b602002602001015182610f749190611861565b915080610f8081611900565b915050610e7c565b5060648160ff161115610fad5760405162461bcd60e51b815260040161054c906116b9565b82516008805460ff191660ff831617905560405133917f48f96e8789eaba6ef30f6956ab1651363ddea537ccae158deda7ba94aa2d9c0e91610ff1919085906117dc565b60405180910390a2505050565b60008211801561100d57508082115b6110295760405162461bcd60e51b815260040161054c90611667565b61103381836118c5565b91506000805b60085460ff90811690821610156111455760ff808216600090815260076020526040812054909160649161107691600160a01b90910416876118a6565b6110809190611886565b60ff83166000908152600760205260408082205490519293506001600160a01b03169183156108fc0291849190818181858888f193505050501580156110ca573d6000803e3d6000fd5b5060ff8216600090815260076020526040908190205490516001600160a01b039091169033907fb34964c5d64fe45c1b41df65786ce654810705a8f27311d30e936bb2daf013119061111d9085906115ec565b60405180910390a361112f8184611849565b925050808061113d90611900565b915050611039565b50808311156111655761115881846118c5565b6111629083611849565b91505b81156111d257604051339083156108fc029084906000818181858888f19350505050158015611198573d6000803e3d6000fd5b50336001600160a01b03167fdb2d9b9e87f8ea5277ecadd5bd786acc7face56c5a093906233b006b091b709183604051610ff191906115ec565b505050565b6102f38061194d83390190565b80356001600160a01b038116811461093757600080fd5b600082601f83011261120b578081fd5b8135602061122061121b83611825565b6117fb565b828152818101908583018385028701840188101561123c578586fd5b855b8581101561125a5781358452928401929084019060010161123e565b5090979650505050505050565b600082601f830112611277578081fd5b8135602061128761121b83611825565b82815281810190858301838502870184018810156112a3578586fd5b855b8581101561125a576112b6826112c8565b845292840192908401906001016112a5565b803560ff8116811461093757600080fd5b6000602082840312156112ea578081fd5b6112f3826111e4565b9392505050565b6000806040838503121561130c578081fd5b611315836111e4565b9150611323602084016111e4565b90509250929050565b6000806040838503121561133e578182fd5b823567ffffffffffffffff80821115611355578384fd5b818501915085601f830112611368578384fd5b8135602061137861121b83611825565b82815281810190858301838502870184018b1015611394578889fd5b8896505b848710156113bd576113a9816111e4565b835260019690960195918301918301611398565b50965050860135925050808211156113d3578283fd5b506113e085828601611267565b9150509250929050565b6000602082840312156113fb578081fd5b813567ffffffffffffffff811115611411578182fd5b61141d848285016111fb565b949350505050565b600080600060608486031215611439578081fd5b833567ffffffffffffffff81111561144f578182fd5b61145b868287016111fb565b9660208601359650604090950135949350505050565b600060208284031215611482578081fd5b815180151581146112f3578182fd5b6000602082840312156114a2578081fd5b5035919050565b6000602082840312156114ba578081fd5b6112f3826112c8565b6001600160f81b031994909416845260609290921b6bffffffffffffffffffffffff191660018401526015830152603582015260550190565b6001600160a01b0391909116815260200190565b6001600160a01b039290921682521515602082015260400190565b6001600160a01b039390931683529015156020830152604082015260600190565b6001600160a01b0392909216825260ff16602082015260400190565b604080825283519082018190526000906020906060840190828701845b828110156115aa5781516001600160a01b031684529284019290840190600101611585565b50505083810382850152845180825285830191830190845b8181101561125a57835160ff16835292840192918401916001016115c2565b901515815260200190565b90815260200190565b60208082526025908201527f4f6e6c7920746865206f776e65722063616e2063616c6c20746869732066756e60408201526431ba34b7b760d91b606082015260800190565b6020808252601390820152722bb937b7339031b7b73334b936b0ba34b7b71760691b604082015260600190565b60208082526032908201527f57616c6c6574466163746f72793a20616d6f756e74206d757374206265203e20604082015271181030b7321033b0b9a332b2a932ba3ab93760711b606082015260800190565b6020808252601d908201527f546f74616c2070657263656e7461676520657863656564732031303025000000604082015260600190565b60208082526037908201527f4f6e6c7920746865206f776e6572206f722077616c6c65742063726561746f7260408201527f2063616e2063616c6c20746869732066756e6374696f6e000000000000000000606082015260800190565b60208082526023908201527f5368617265486f6c64657273206c697374206d757374206e6f7420626520656d60408201526270747960e81b606082015260800190565b6020808252602c908201527f5368617265486f6c6465727357616c6c6574206c656e67746820213d2053686160408201526b1c99521bdb19195c9cd418dd60a21b606082015260800190565b91825260ff16602082015260400190565b60ff91909116815260200190565b60405181810167ffffffffffffffff8111828210171561181d5761181d611936565b604052919050565b600067ffffffffffffffff82111561183f5761183f611936565b5060209081020190565b6000821982111561185c5761185c611920565b500190565b600060ff821660ff84168060ff0382111561187e5761187e611920565b019392505050565b6000826118a157634e487b7160e01b81526012600452602481fd5b500490565b60008160001904831182151516156118c0576118c0611920565b500290565b6000828210156118d7576118d7611920565b500390565b600063ffffffff808316818114156118f6576118f6611920565b6001019392505050565b600060ff821660ff81141561191757611917611920565b60010192915050565b634e487b7160e01b600052601160045260246000fd5b634e487b7160e01b600052604160045260246000fdfe608060405234801561001057600080fd5b50600080546001600160a01b031916331790556102c1806100326000396000f3fe6080604052600436106100385760003560e01c80638129fc1c146100a8578063b7cdddcb146100bf578063c45a0155146100ea576100a3565b366100a357600054604051636fc4936360e11b81526001600160a01b039091169063df8926c690479061006f903390600401610212565b6000604051808303818588803b15801561008857600080fd5b505af115801561009c573d6000803e3d6000fd5b5050505050005b600080fd5b3480156100b457600080fd5b506100bd61010c565b005b3480156100cb57600080fd5b506100d46101a4565b6040516100e19190610226565b60405180910390f35b3480156100f657600080fd5b506100ff610203565b6040516100e19190610212565b6000546001600160a01b0316331461013f5760405162461bcd60e51b815260040161013690610260565b60405180910390fd5b60008054604051636fc4936360e11b81526001600160a01b039091169163df8926c691479161017091600401610212565b6000604051808303818588803b15801561018957600080fd5b505af115801561019d573d6000803e3d6000fd5b5050505050565b600080546001600160a01b031633146101cf5760405162461bcd60e51b815260040161013690610231565b60405132904780156108fc02916000818181858888f193505050501580156101fb573d6000803e3d6000fd5b506001905090565b6000546001600160a01b031681565b6001600160a01b0391909116815260200190565b901515815260200190565b6020808252601590820152742bb0b63632ba1d102737903832b936b4b9b9b4b7b760591b604082015260600190565b6020808252601190820152702bb0b63632ba1d102327a92124a22222a760791b60408201526060019056fea2646970667358221220c10efe4554d062187c9bafe83b2a2f2b0d61009e97de9e5941c08fa33efcce2964736f6c63430008000033a2646970667358221220f04949a23dcb71f285e907931068a8e4886a897d987b31bb1433883ca2dc9b5164736f6c63430008000033",
   "immutableReferences": {},
   "source": "// SPDX-License-Identifier: MIT\r\npragma solidity 0.8.0;\r\n\r\nimport \"./Address.sol\";\r\nimport \"./SafeMath.sol\";\r\nimport \"./IWallet.sol\";\r\nimport \"./Wallet.sol\";\r\n\r\ncontract WalletFactory {\r\n    using Address for address;\r\n    using SafeMath for uint256;\r\n    \r\n    address[] public wallets;\r\n    mapping(bytes32 => address) public saltToWallet;\r\n    mapping(address => bytes32) public walletToSalt;\r\n    mapping(address => bool) public walletCreated;\r\n    mapping(address => uint256) public walletToDeposits;\r\n\r\n    address public owner;\r\n    address public walletCreator;\r\n\r\n    mapping(uint8 => ShareHolder) public shareHolders;\r\n    uint8 public totalShareHolders;\r\n\r\n    struct ShareHolder {\r\n        address wallet;\r\n        uint8 pct;\r\n    }\r\n\r\n    event WalletCreated(bytes32 indexed salt, address indexed wallet);\r\n    event Transfer(address indexed from, address indexed toWallet, uint amount);\r\n    event ShareHoldersUpdated(address indexed from, uint totalShareHolders, uint totalPercentages);\r\n    event ShareSent(address indexed executor, address indexed holderWallet, uint amount);\r\n    event FeesReturned(address indexed executor, uint amount);\r\n\r\n    constructor(\r\n        address _walletCreator,\r\n        address[] memory _shareHoldersWallets, \r\n        uint8[] memory _shareHoldersPcts\r\n    ) public {\r\n        owner = msg.sender;\r\n        walletCreator = _walletCreator;\r\n        _updateShareHolders(_shareHoldersWallets, _shareHoldersPcts);\r\n    }\r\n\r\n    function receiveFunds(address from) external payable {\r\n        // You can implement distribution logic here\r\n        if(walletCreated[msg.sender] && msg.value > 0) {\r\n            walletToDeposits[msg.sender] += msg.value;\r\n            emit Transfer(from, msg.sender, msg.value);\r\n        }\r\n    }\r\n\r\n    modifier onlyOwner() {\r\n        require(msg.sender == owner, \"Only the owner can call this function\");\r\n        _;\r\n    }\r\n\r\n    modifier onlyOwnerOrCreator() {\r\n        require(msg.sender == owner || msg.sender == walletCreator, \"Only the owner or wallet creator can call this function\");\r\n        _;\r\n    }\r\n\r\n    function updateOwner(address currentOwnerConfirmation, address newOwner) external onlyOwner {\r\n        require(currentOwnerConfirmation == owner, \"Wrong confirmation.\");\r\n        owner = newOwner;\r\n    }\r\n    function updateWalletCreator(address _walletCreator) external onlyOwner {\r\n        walletCreator = _walletCreator;\r\n    }\r\n\r\n    // Function to update shareHolders and their percentages\r\n    function updateShareHolders(\r\n        address[] memory _shareHoldersWallets, \r\n        uint8[] memory _shareHoldersPcts\r\n    ) external onlyOwner {\r\n        _updateShareHolders(_shareHoldersWallets, _shareHoldersPcts);\r\n    }\r\n    \r\n    function _updateShareHolders(\r\n        address[] memory _shareHoldersWallets, \r\n        uint8[] memory _shareHoldersPcts\r\n    ) private {\r\n        require(_shareHoldersWallets.length > 0, \"ShareHolders list must not be empty\");\r\n        require(_shareHoldersWallets.length == _shareHoldersPcts.length, \"ShareHoldersWallet length != ShareHoldersPct\");\r\n\r\n        uint8 totalPercentage;\r\n        // Update shareholders with the new list\r\n        for (uint8 i = 0; i < _shareHoldersWallets.length; i++) {\r\n            shareHolders[i].wallet = _shareHoldersWallets[i];\r\n            shareHolders[i].pct = _shareHoldersPcts[i];\r\n            totalPercentage += _shareHoldersPcts[i];\r\n        }\r\n        require(totalPercentage <= 100, \"Total percentage exceeds 100%\");\r\n        totalShareHolders = uint8(_shareHoldersWallets.length);\r\n\r\n        emit ShareHoldersUpdated(msg.sender, _shareHoldersWallets.length, totalPercentage);\r\n    }\r\n\r\n    function disburseFunds(uint256 gasFeeReturn) external onlyOwnerOrCreator {\r\n        _disburseFunds(address(this).balance, gasFeeReturn);\r\n    }\r\n\r\n    function claimWalletEth(bytes32 salt) external onlyOwnerOrCreator returns (bool) {\r\n        (address wallet,) = _getSaltAddress(salt);\r\n        return IWallet(wallet).claimEth();\r\n    }\r\n\r\n    function _disburseFunds(uint256 amount, uint256 gasFeeReturn) private {\r\n        require(amount > 0 && amount > gasFeeReturn, \"WalletFactory: amount must be > 0 and gasFeeReturn\");\r\n        \r\n        amount -= gasFeeReturn;\r\n        \r\n        uint256 totalSent;\r\n        for (uint8 i = 0; i < totalShareHolders; i++) {\r\n            uint256 share = (amount * shareHolders[i].pct) / 100;\r\n            payable(shareHolders[i].wallet).transfer(share);\r\n            emit ShareSent(msg.sender, shareHolders[i].wallet, share);\r\n            totalSent += share;\r\n        }\r\n        if(amount > totalSent) {\r\n            gasFeeReturn += amount - totalSent;\r\n        }\r\n        if(gasFeeReturn > 0) {\r\n            payable(msg.sender).transfer(gasFeeReturn);\r\n            emit FeesReturned(msg.sender, gasFeeReturn);\r\n        }\r\n    }\r\n\r\n    function createWallets(bytes32[] memory salts, uint256 disburseThreshold, uint256 gasFeeReturn) external onlyOwnerOrCreator {\r\n        bytes memory bytecode = type(Wallet).creationCode;\r\n        address wallet;\r\n        bytes32 salt;\r\n        for (uint32 index = 0; index < salts.length; index++) {\r\n            salt = salts[index];\r\n            assembly {\r\n                wallet := create2(0, add(bytecode, 32), mload(bytecode), salt)\r\n            }\r\n            walletCreated[wallet] = true;\r\n            saltToWallet[salt] = wallet;\r\n            walletToSalt[wallet] = salt;\r\n            wallets.push(wallet);\r\n            emit WalletCreated(salt, wallet);\r\n            IWallet(wallet).initialize();\r\n        }\r\n        uint256 amount = address(this).balance;\r\n        if(amount > 0 && amount >= disburseThreshold && amount > gasFeeReturn) {\r\n            _disburseFunds(amount, gasFeeReturn);\r\n        }\r\n    }\r\n\r\n    function getSaltAddress(bytes32 salt) public view returns (address wallet, bool isCreated) {\r\n        (wallet, isCreated) = _getSaltAddress(salt);\r\n    }\r\n\r\n    function _getSaltAddress(bytes32 salt) private view returns (address wallet, bool isCreated) {\r\n        wallet = saltToWallet[salt];\r\n        isCreated = walletCreated[wallet];\r\n        if(!isCreated) {\r\n            bytes memory bytecode = type(Wallet).creationCode;\r\n            bytes32 bytecodeHash = keccak256(bytecode);\r\n            wallet = address(uint160(uint256(keccak256(abi.encodePacked(\r\n                bytes1(0xff),\r\n                address(this),\r\n                salt,\r\n                bytecodeHash\r\n            )))));\r\n        }\r\n    }\r\n\r\n    function getAllSaltsTotalBalance(bytes32[] memory salts) external view returns(uint256 totalBalance) {\r\n        address wallet;\r\n        bool isCreated;\r\n        bytes32 salt;\r\n        for (uint32 index = 0; index < salts.length; index++) {\r\n            salt = salts[index];\r\n            (wallet, isCreated) = _getSaltAddress(salt);\r\n            totalBalance += isCreated? walletToDeposits[wallet] : wallet.balance;\r\n        }\r\n    }\r\n\r\n    function getCreatedSaltsTotalBalance(bytes32[] memory salts) external view returns(uint256 totalBalance) {\r\n        address wallet;\r\n        bool isCreated;\r\n        bytes32 salt;\r\n        for (uint32 index = 0; index < salts.length; index++) {\r\n            salt = salts[index];\r\n            (wallet, isCreated) = _getSaltAddress(salt);\r\n            if(isCreated) {\r\n                totalBalance += walletToDeposits[wallet];\r\n            }\r\n        }\r\n    }\r\n\r\n    function getNonCreatedSaltsTotalBalance(bytes32[] memory salts) external view returns(uint256 totalBalance) {\r\n        address wallet;\r\n        bool isCreated;\r\n        bytes32 salt;\r\n        for (uint32 index = 0; index < salts.length; index++) {\r\n            salt = salts[index];\r\n            (wallet, isCreated) = _getSaltAddress(salt);\r\n            if(!isCreated) {\r\n                totalBalance += wallet.balance;\r\n            }\r\n        }\r\n    }\r\n\r\n    function walletsCount() external view returns (uint256) {\r\n        return wallets.length;\r\n    }\r\n\r\n    function getAllShareHolders() external view returns (address[] memory, uint8[] memory) {\r\n        address[] memory addresses = new address[](totalShareHolders);\r\n        uint8[] memory pcts = new uint8[](totalShareHolders);\r\n\r\n        for (uint8 i = 0; i < totalShareHolders; i++) {\r\n            addresses[i] = shareHolders[i].wallet;\r\n            pcts[i] = shareHolders[i].pct;\r\n        }\r\n        \r\n        return (addresses, pcts);\r\n    }\r\n\r\n    //Entry function\r\n    function getSaltBalance(bytes32 salt) external view returns(address wallet, bool isCreated, uint256 balance) {\r\n        (wallet, isCreated) = _getSaltAddress(salt);\r\n        balance = isCreated? walletToDeposits[wallet] : wallet.balance;\r\n    }\r\n}",
   "sourcePath": "D:\\cyberockvalley\\WEB_DEV\\npm-libs\\use-softbaker\\contract\\contracts\\WalletFactory.sol",
   "compiler": {
      "name": "solc",
      "version": "0.8.0+commit.c7dfd78e.Emscripten.clang"
   },
   "schemaVersion": "3.4.16",
   "updatedAt": "2023-11-08T22:15:29.589Z",
   "devdoc": {
      "kind": "dev",
      "methods": {},
      "version": 1
   },
   "userdoc": {
      "kind": "user",
      "methods": {},
      "version": 1
   }
}